:030000000209836F
:0C098300787FE4F6D8FD75811302097539
:1009410020B41212095720B40CE4F590120966750F
:0609510090FF120966226E
:1008C80020B55812095720B5527590FF120966E4F1
:1008D800F50AF50BAF90750C008F0D0509E5097049
:1008E80002050814FF74FEA807088002C333D8FC69
:1008F8005290120966050BE50B7002050AC39408AD
:10090800E50A6480948040CC120924E50B6408450C
:0C0918000A7008F508F509F50AF50B2235
:1008000020B66412095720B65E7590FE120966750F
:100810000E00750F01AF907801EF08800123D8FD1D
:10082000F590120966050FE50F7002050EC39407D7
:10083000E50E6480948040DD75907F120966750E28
:1008400000750F01AF907801EF08800103D8FDF526
:1008500090120966050FE50F7002050EC39407E5B7
:070860000E6480948040DD6E
:01086700226E
:0908680020B75C12095720B756B5
:10087100751000751101751200751380E51165136E
:10088100F4F590120966E4F50EF50FAF117801EF5A
:1008910008800123D8FD751000F511AF137801EF21
:1008A10008800103D8FD751200F5136511F4F59068
:1008B100120966050FE50F7002050EC39403E50EDC
:0608C1006480948040C534
:0108C700220E
:0E0975001209411208C812080012086880F228
:10092400E4FFFEE4FDFC0DBD00010CED64D24C704F
:0C093400F50FBF00010EBE02EABF26E76F
:010940002294
:0E0957007FD47E03EF1FAC0670011E4C70F6BD
:01096500226F
:0E0966007FCE7EC7EF1FAC0670011E4C70F6F0
:010974002260
:00000001FF
