:03000000020A965B
:0C0A9600787FE4F6D8FD758120020ADDAF
:10091E007F98B0C6D9E9F5FCFFFCF5E9D9C6B098C9
:10092E007F664E38251509020002091525384E66D8
:10093E0000102030405060708090A0B0C0D0E0F029
:10094E00FFF0E0D0C0B0A09080706050403020101A
:10095E0000081018202830384048505860687078C9
:10096E0080889098A0A8B0B8C0C8D0D8E0E8F0F8B9
:10097E00352020342020322E3520203220203135D3
:10098E003000333000322E3520323031300000004E
:10099E0000000000000000000000000000302E30BB
:1009AE003200302E313000302E323000302E3530C5
:1009BE0000302E3630000000000000000000000065
:0F09CE000000000000000000000000000000001A
:100CB700040A553D5600050E663D487A0004135454
:030CC7003D73007A
:0E0CED007FD47E03EF1FAC0670011E4C70F624
:010CFB0022D6
:020D04000022CB
:10080000120C70C2A6C2A71209DDE519B42003E4D8
:10081000F519E50924FE60351460751470030208AB
:10082000D5240370E2AF1B120C007F82120CFCE493
:10083000F51AE51AC3940350CEE50875F003A42415
:100840007EF582E43409120C34051A80E590091E05
:10085000120BFC7F82120CFCE4F51A120C27051A0D
:10086000E51AC3940340F47FC2120CFCE4F51AE5C8
:100870000875F005A424ABF582E43409120C3405A4
:100880001AE51AC3940440E7120D0405190208077B
:1008900090093E120BFC7F82120CFCE4F51A120C3C
:1008A00027051AE51AC3940340F47FC2120CFCE436
:1008B000F51AE50875F005A424ABF582E4340912B5
:1008C0000C34051AE51AC3940440E7AF17120C93D1
:1008D0000519020807E51990095E93FF120C007FC5
:1008E00082120CFCE4F51A120C27051AE51AC394BF
:1008F0000340F47FC2120CFCE4F51AE50875F0051C
:10090000A424ABF582E43409120C34051AE51AC3A9
:0E091000940440E7AF17120C93051902080774
:100C70007F38120CFC7F08120CFC7F01120CFC7FE9
:090C800006120CFC7F0C020CFCB6
:1009DD0075B0F085B01E531EF0E51E64F070030275
:1009ED000A957F0A120C93E51E64F07003020A95B6
:1009FD0085B01E431E0F851EB085B018E5182483E3
:100A0D00606014604024C0603124E0602224F760EF
:100A1D006724FC605824FE603E147068120C70123E
:100A2D000BCD750901E4F519751BFFF508805512FD
:100A3D000C70120B227509028014120C70120B220D
:100A4D007509038009120C70120B22750904E4F567
:100A5D0017F508F519802D751BCC75170A7508014A
:100A6D00801F751B807508027517328014751B6603
:100A7D007508037517C88009751B3375080475173C
:080A8D00F4E4F519E51860FC22
:010A9500223E
:100BCD007F80120CFCE4F51A740A251AF8E6FF1260
:100BDD000C447F03120C93051AE51AC3940240E8E6
:0F0BED007F85120CFCAF0C120C447F03020C939B
:100B22007F80120CFCE4F51A740E251AF8E6FF1207
:100B32000C447F03120C93051AE51AC3940240E891
:100B42007F85120CFC751A02740E251AF8E6FF1244
:100B52000C447F03120C93051AE51AC3940440E86F
:100B62007FC0120CFCE4F51A7413251AF8E6FF1282
:100B72000C447F03120C93051AE51AC3940240E851
:0F0B82007FC6120CFCAF15120C447F03020C93BC
:0A0C8900C2B6C2B48F80D2B47F0A55
:0D0C9300EFD3940040077E1EDEFE1F80F3AD
:010CA0002231
:080CFC00C2B5120C89C2B4223A
:100C2700E50875F003A4248DF582E43409F583E51E
:0D0C370082251AF582E43583F583E493FFEE
:080C4400D2B5120C89C2B422E2
:040BFC00E51993FF65
:100C00008F1E120CA17F90120B91200002C3227F35
:100C100040120B91200002C322AF1E120B91200044
:070C200002C322120CCB22DB
:100CA100D2A000D2A10000000000C2A000000000FC
:060CB10000C2A1000022B8
:100CCB00C2A000D2A10000000000D2A000000000D2
:010CDB0022F6
:100B9100E4FEEFA806088002C333D8FC30E704D294
:100BA100A08002C2A000D2A10000000000C2A10EDC
:100BB100BE08DF0000D2A00000D2A100000030A0DA
:0B0BC10004C2008002D200C2A10000AC
:010BCC002206
:100C4C00E4FFD2A0FE00C2A10000000000D2A1006F
:100C5C0000EF25E0FF30A0010F00000EBE08E6C239
:030C6C00A10000E4
:010C6F002262
:100CDC00D2A0000000D2A10000000000C2A10000C0
:010CEC0022E5
:100AA200020800E493A3F8E493A34003F68001F262
:100AB20008DFF48029E493A3F85407240CC8C33355
:100AC200C4540F4420C8834004F456800146F6DF24
:100AD200E4800B0102040810204080900CB7E47EF1
:100AE200019360BCA3FF543F30E509541FFEE49319
:100AF200A360010ECF54C025E060A840B8E493A3E0
:100B0200FAE493A3F8E493A3C8C582C8CAC583CA0A
:100B1200F0A3C8C582C8CAC583CADFE9DEE780BEC2
:010CCA000029
:00000001FF
