:030000000209CF23
:0C09CF00787FE4F6D8FD75812002080056
:1009AD0043484F3A004348313A004348323A0043F6
:0409BD0048333A0081
:0B092200E50A93FF1208B87FB87E0BB7
:10092D008F0BE50BD39400400A750C78D50CFD1593
:04093D000B80EF221A
:0209E7000022EC
:0C09DB00D2A1D2A01209E7C2A00209E7D5
:0E09C100C2A1C2A0D2A11209E7D2A00209E78A
:03095A001209017E
:10095D00C2A1D2A11209E730A004C2A1D322C2A123
:02096D00C322A3
:10096F00C2A1300104D2A08002C2A0D2A11209E715
:05097F00C2A1D2A0227C
:10090100E4F50BC2A1EF30E704D2A08002C2A0D26D
:10091100A1EF25E0FF050BE50BB408E7C2A1D2A0CA
:0109210022B3
:10098400E4FEEF25E0FFC2A1D2A130A0034307019A
:040994000EBE08EE9D
:01099800223C
:0208CC00AE0775
:1008CE001209DB7F9012095A5004D2008002C20036
:1008DE00AF0612095A1209DB7F9112090112095D46
:1008EE005004D2008002C200120984D20112096F94
:0308FE000209C12B
:10099900C2B5C2B6C2B48F80D2B47F057E00120937
:0409A9002DC2B42285
:10088D008F08E50875F064842430FF1208B8E50878
:10089D0075F06484E5F075F00A842430FF1208B811
:0B08AD00E50875F00A84E5F02430FF38
:1008B800D2B5C2B6C2B48F80D2B47F057E00120909
:0408C8002DC2B42267
:100941007F381209997F081209997F011209997F4D
:09095100061209997F0F020999B1
:10080000E4F580C2A6C2A71209417F80120999E4CB
:10081000F50A9009AD120922050AE50AC3940440BD
:10082000F1E4FF1208CC12088D7F88120999E4F5D3
:100830000A9009B2120922050AE50AC3940440F19C
:100840007F011208CC12088D7FC0120999E4F50AC5
:10085000E50A9009B7120924050AE50AC394044081
:10086000EF7F021208CC12088D7FC8120999E4F5B7
:100870000AE50A9009BC120924050AE50AC3940492
:0D08800040EF7F031208CC12088D02080A19
:00000001FF
