:03000000020003F8
:0C000300787FE4F6D8FD75812702004AE2
:1002130002080000150A00000000005B3F067F5B38
:10022300065B060666000000000000061F7E7D7B5D
:03023300776F5F83
:100153007580FF7F0112018BD2A77F0112018BC231
:10016300A7C2A6C374149525C39509240AF8E6F516
:1001730080D2A6C2A6C2A7C374059525241FF8E69C
:08018300F580D2A7C2A77F019D
:10018B00AD071FED600BE4FEEEC3947D50F20E80C5
:01019B00F76C
:01019C002240
:0E0237007FD47E03EF1FAC0670011E4C70F6E4
:010245002296
:10019D0020B43712023720B431E4F526E4F52512E8
:1001AD0001530525E525C3940640F40526E526C330
:1001BD00940F40E80509E50970020508C39410E5A0
:0B01CD000894004005E4F508F5092245
:1001D80020B53712023720B531E4F526E4F52512AB
:1001E80001530525E525C3940640F40526E526C3F5
:1001F800940740E80509E50970020508C39410E56D
:0B0208000894004005E4F508F5092209
:10008F0020B65E12023720B658E4F526E4F5257542
:10009F0080FF7F0112018BD2A77F0112018BC2A7B4
:1000AF00C2A6E5252509240AF8E6F580D2A6C2A640
:1000BF00C2A7741F25251201810525E525C39406C6
:1000CF0040CD0526E526C3940F40C10509E509700B
:1000DF00020508C39410E50894004005E4F508F5FF
:0200EF000922E4
:1000F10020B75E12023720B758E4F526E4F52575DE
:1001010080FF7F0112018BD2A77F0112018BC2A751
:10011100C2A6E5252509240AF8E6F580D2A6C2A6DD
:10012100C2A7741F25251201810525E525C3940663
:1001310040CD0526E526C3940740C10509E50970B0
:10014100020508C39410E50894004005E4F508F59C
:02015100092281
:0E02460012019D1201D812008F1200F180F2F9
:10000F00020246E493A3F8E493A34003F68001F2BF
:10001F0008DFF48029E493A3F85407240CC8C333F2
:10002F00C4540F4420C8834004F456800146F6DFC1
:10003F00E4800B0102040810204080900213E47E3C
:10004F00019360BCA3FF543F30E509541FFEE493B6
:10005F00A360010ECF54C025E060A840B8E493A37D
:10006F00FAE493A3F8E493A3C8C582C8CAC583CAA8
:10007F00F0A3C8C582C8CAC583CADFE9DEE780BE60
:0102360000C7
:00000001FF
