:10101500EF601FE4FDFCE4FBFA0BBB00010AEB6487
:10102500D24A70F50DBD00010CBC02EABD26E71FD2
:0210350080DE5B
:011037002296
:03109300EF6016F5
:10109600751600751762E5171517AC16700215164A
:0410A6004C70F31F78
:0310AA0080E722BA
:0811B300EF6004001F80F92227
:0D10E000C181024A0000024C00640148FF7B
:100D92001211BB121190121180E4F580C2A6C2A7F3
:100DA2001210C7300005120F8EC200300203120E5D
:100DB200C2300104C2908005200102D290E54B644A
:100DC20001454A703DE54D6401454C70077548C8C0
:100DD2007F538029E54D6402454C70077548787F42
:100DE2004D801AE54D6403454C700775481E7F46D9
:100DF200800BE54D454C70267548FF7F50120FBFA2
:100E0200801CE54B6402454A7011120CDFC3EF945B
:100E12007DEE9400500575481E80037548FF120C44
:100E22002CD3EF94C8EE94004005C291020DA5D2D6
:040E320091020DA577
:0B119D004C69673A0054656D703A0021
:10117000D2A1D2A07F011211B3C2A07F010211B38C
:10113A00C2A1C2A0D2A17F011211B3D2A07F010223
:02114A0011B3DF
:0310F7001210389C
:1010FA00C2A1D2A17F011211B330A004C2A1D3228E
:04110A00C2A1C32299
:10110E00C2A1300504D2A08002C2A0D2A17F0112DA
:07111E0011B3C2A1D2A0220F
:10103800E4F551C2A1EF30E704D2A08002C2A0D2E9
:10104800A1EF25E0FF0551E551B408E7C2A1D2A000
:011058002275
:10112500E4FEEF25E0FFC2A1D2A130A003430701F1
:041135000EBE08EEF4
:011139002293
:020F54008F16F6
:100F56001211707F901210F75004D2038002C20360
:100F6600AF161210F71211707F911210381210FA84
:100F76005004D2038002C2031211258F17D2051224
:070F8600110E12113AAF1722
:010F8D002241
:100C2C007F8012114CE4F550E55090119D93FF120A
:100C3C00115E0550E550C3940440EDE4FF120F54CF
:100C4C008F4E7F01120F547F02120F547F03120F2D
:100C5C00547F2C121093E54E75F06484FF751000D0
:100C6C00F511E54E75F06484E5F075F00A847512A3
:100C7C0000F513E54E75F00A84E5F0751400F515D2
:100C8C00EF2430FF12115EE54E75F06484E5F075CB
:100C9C00F00A842430FF12115EE54E75F00A84E5EB
:100CAC00F02430FF12115E7FE8121093AE12AF13D6
:100CBC007C007D0A120ABDAA06AB07AE10AF117DEF
:100CCC0064120ABDEF2BFFEE3AFEE5152FFFE5147B
:020CDC003EFEDA
:010CDE0022F3
:100CDF007FC012114CE4F550E5509011A293FF1212
:100CEF00115E0550E550C3940540EDE4FF120F541B
:100CFF007F01120F547F02120F547F03120F548F74
:100D0F004E7F2C121093E54E75F06484FF75100022
:100D1F00F511E54E75F06484E5F075F00A847512EF
:100D2F0000F513E54E75F00A84E5F0751400F5151E
:100D3F00EF2430FF12115EE54E75F06484E5F07517
:100D4F00F00A842430FF12115EE54E75F00A84E537
:100D5F00F02430FF12115E7FE8121093AE12AF1322
:100D6F007C007D0A120ABDAA06AB07AE10AF117D3B
:100D7F0064120ABDEF2BFFEE3AFEE5152FFFE514C7
:020D8F003EFE26
:010D9100223F
:0D119000758902E4F58CF58AD2A9D28C2273
:03000B000211C817
:0311C800052232CB
:0711BB00D288D2A8D2AF22B6
:03000300020F13D6
:090F1300C0E0C0D075D000C000A0
:100F1C00300429E522C3943F500AE522C3942140B2
:100F2C000375210074272521F8A6227522000521BE
:100F3C00E521B4210CD2007521008005752200D268
:010F4C0004A0
:070F4D00D000D0D0D0E0324B
:100EC200E52524F7602D24FD602C24F6603D24FEE8
:100ED200602B24D5601A24FC600F24E960262419B3
:100EE200702E754A00754B0122754A00754B02221D
:100EF200D20122C20122754C00754D0122754C00AF
:100F0200754D0222754C00754D0322E4F54CF54DEA
:010F120022BC
:100F8E007E01E4FD7C0174272EF8E6D3940740031E
:100F9E00430780ECC394085004EFC313FF0E0CBC40
:100FAE0009E474232DF8A607E4FF0DBD04D6D20282
:010FBE002210
:10118000438920758DDC758BDCD28ED2ABD2AF2239
:03001B0002107759
:10107700C0E0C0D00549E549B4FF05754900C296EF
:0C108700E548B54902D296D0D0D0E03246
:0910ED00071853706565643A00B0
:10114C00C2B5C2B6C2B48F80D2B47F05121093C29E
:02115C00B422BB
:10115E00D2B5C2B6C2B48F80D2B47F05121093C27C
:02116E00B422A9
:1010C7007F3812114C7F0812114C7F0112114C7F8F
:0910D7000612114C7F0F02114CAE
:020FBF008F1091
:100FC1007F8812114CE4F511F51274182512F8E618
:100FD100FF12115E0512E51270020511C39406E5B8
:0C0FE100116480948040E3AF1002115EA8
:0611C20054656D703A0057
:0B11A800EF1FAC0670011E4C70F62219
:100FED00E4FDD2A27F08FE1211A8C2A27F507E009E
:100FFD001211A8D2A27F0E7E001211A8A2A2E43374
:08100D00FD7F147E000211A812
:10105900E4FB7D08C2A2EBC313FBD2A230A2034377
:0D10690003807F047E001211A8DDE9AF03B3
:011076002257
:0210AD00AD078D
:1010AF007B08C2A2ED1392A27F057E001211A8D277
:0710BF00A2EDC313FDDBEB02
:0110C6002207
:100B3200E4FAFFF50AF50BF50FF50EF50DF50C12BB
:100B42000FED7FCC1210AD7F441210AD120FED7F6E
:100B5200CC1210AD7FBE1210AD121059AA0712109E
:100B620059750A008F0BE50B750B00F50AAF02EF02
:100B7200420BE4AC0AAD0B120A03E4FBFA7980786B
:100B82003D1208F88F0F8E0E8D0D8C0CE4FFFE7D4A
:100B9200207C41AB0FAA0EA90DA80C1208F8E4FBA9
:100BA200FAF9783F120807120A3C8E0A8F0B7FC0AF
:100BB20012114CE4F508F50974C22509F582741185
:100BC2003508F583E493FF12115E0509E509700209
:100BD2000508C39405E5086480948040DBAE0AAF43
:100BE2000B7C007D64120ACFEF2430FF12115EAE3F
:100BF2000AAF0B7C007D64120ACF7E007F0ACFCD44
:100C0200CFCECCCE120ACFEF2430FF12115EAE0A45
:100C1200AF0B7C007D0A120ACFED2430FF12115E69
:090C22007FE8121093AE0AAF0B3B
:010C2B0022A6
:10080000020AA8E86480F8E933E83360110460F074
:10081000ED33EC337009E8FCE9FDEAFEEBFF22045E
:1008200060DED3EB9FEA9EE99DE8C2E78CF0C2F759
:1008300095F0400CE8CCF8E9CDF9EACEFAEBCFFB25
:10084000120A7385D0F05804700320D5B3E8047001
:10085000075002B2D5020AB292D5EC0460F7E4CC9C
:10086000C0E0C398F8603B94186008400DD0E0FBEE
:10087000020A8AE4FBFAC9FC8028E830E406E4C9ED
:10088000FBE4CAFCE830E305E4C9CACBFCE8540742
:100890006010F8C3E913F9EA13FAEB13FBEC13FC4D
:1008A000D8F130F52FC3E49CFCEF9BFFEE9AFEEDF0
:1008B00099FDD0E0FBEF4E4D4C701222DB03020A93
:1008C000AFEC2CFCEF33FFEE33FEED33FDED30E704
:1008D000EB020A8AEF2BFFEE3AFEED39FDD0E0FB8A
:1008E00050130BBB0003020AB2ED13FDEE13FEEF33
:0808F00013FFEC13FC020A8A5D
:1008F800EC4D6011E8497017ED33EC3304600DE4FA
:10090800FCFFFEFD22E933E8330470F8020AA8125E
:100918000A7358046009E4CC24815006285009025F
:100928000AB2284003020AAFC0E0EB4A7044B9801B
:1009380006D0E0FB020A9EEF4E701CBD8008EBFF5C
:10094800EAFEE9FD80EBE98DF0A4FEE5F00209E19D
:10095800E9CDF9EAFEEBFFEF89F0A4FCE5F0CE89DA
:10096800F0A42EFFE435F0CD89F0A42DFEE435F097
:100978008067EF4E7005BD80D780C3EF8BF0A4ACC5
:10098800F0EE8BF0A42CFCE435F0F8EF8AF0A42C00
:10099800E5F038FCE433CB8DF0A42CFCE5F03BF813
:1009A800EE8AF0A42CFCE5F038F8E433CF89F0A403
:1009B8002CFCE5F038CF3400CE89F0A42FFFE5F009
:1009C8003EFEE433C98DF0A42EFEE5F039CD8AF061
:1009D800A42FFFE5F03EFEE43DFD33D0E0FB5007D9
:1009E8000BBB000F020AB2EC2CFCEF33FFEE33FE18
:0609F800ED33FD020A8A46
:1009FE0075F020800E75F010800575F0087D007E74
:100A0E00007F003392D530D503120B24EC33401007
:100A1E00EF33FFEE33FEED33FDEC33FCD5F0ED227C
:0E0A2E00E5F0247EA2D513CC92E7CDCEFF22B8
:100A3C00EDD2E7CD33EC3392D524814006E4FFFEB2
:100A4C00FDFC22FCE4CFCECDCC24E0501174FF8011
:100A5C00EDC3CC13CCCD13CDCE13CECF13CF0470AE
:070A6C00F030D5DE020B247F
:100A7300E9D2E7C933E833F892D5EDD2E7CD33ECC9
:070A830033FC5002B2D52242
:100A8A00EC30E7100FBF000C0EBE00080DBD0004CD
:100A9A000BEB6014A2D5EB13FCED92E7FD2274FF79
:100AAA00FCFDFEFF22E480F8A2D574FF13FC7D80D2
:030ABA00E480EFE6
:03000000020E36B7
:0C0E3600787FE4F6D8FD758152020E7D35
:100ABD00EF8DF0A4A8F0CF8CF0A428CE8DF0A42E4D
:020ACD00FE2207
:100ACF00BC000BBE0029EF8DF084FFADF022E4CC0B
:100ADF00F875F008EF2FFFEE33FEEC33FCEE9DECD4
:100AEF00984005FCEE9DFE0FD5F0E9E4CEFD22ED1A
:100AFF00F8F5F0EE8420D21CFEADF075F008EF2F64
:100B0F00FFED33FD4007985006D5F0F222C398FD54
:050B1F000FD5F0EA22F1
:0E0B2400C3E49FFFE49EFEE49DFDE49CFC22E2
:100E4200020D92E493A3F8E493A34003F68001F227
:100E520008DFF48029E493A3F85407240CC8C333B1
:100E6200C4540F4420C8834004F456800146F6DF80
:100E7200E4800B01020408102040809010E0E47E20
:100E8200019360BCA3FF543F30E509541FFEE49375
:100E9200A360010ECF54C025E060A840B8E493A33C
:100EA200FAE493A3F8E493A3C8C582C8CAC583CA67
:100EB200F0A3C8C582C8CAC583CADFE9DEE780BE1F
:0110F60000F9
:00000001FF
